{
  "_format": "hh-sol-artifact-1",
  "contractName": "ArbitrumLendingContract",
  "sourceName": "contracts/arbitrum/ArbitrumLendingContract.sol",
  "abi": [
    {
      "inputs": [],
      "stateMutability": "nonpayable",
      "type": "constructor"
    },
    {
      "inputs": [],
      "name": "EnforcedPause",
      "type": "error"
    },
    {
      "inputs": [],
      "name": "ExpectedPause",
      "type": "error"
    },
    {
      "inputs": [],
      "name": "ReentrancyGuardReentrantCall",
      "type": "error"
    },
    {
      "anonymous": false,
      "inputs": [
        {
          "indexed": true,
          "internalType": "uint256",
          "name": "loanId",
          "type": "uint256"
        },
        {
          "indexed": false,
          "internalType": "uint256",
          "name": "amount",
          "type": "uint256"
        }
      ],
      "name": "CollateralWithdrawn",
      "type": "event"
    },
    {
      "anonymous": false,
      "inputs": [
        {
          "indexed": true,
          "internalType": "address",
          "name": "lender",
          "type": "address"
        },
        {
          "indexed": false,
          "internalType": "uint256",
          "name": "amount",
          "type": "uint256"
        }
      ],
      "name": "FundsLent",
      "type": "event"
    },
    {
      "anonymous": false,
      "inputs": [
        {
          "indexed": true,
          "internalType": "uint256",
          "name": "loanId",
          "type": "uint256"
        },
        {
          "indexed": true,
          "internalType": "address",
          "name": "borrower",
          "type": "address"
        },
        {
          "indexed": false,
          "internalType": "uint256",
          "name": "amount",
          "type": "uint256"
        },
        {
          "indexed": false,
          "internalType": "uint256",
          "name": "interest",
          "type": "uint256"
        },
        {
          "indexed": false,
          "internalType": "uint256",
          "name": "duration",
          "type": "uint256"
        },
        {
          "indexed": false,
          "internalType": "uint256",
          "name": "collateralAmount",
          "type": "uint256"
        }
      ],
      "name": "LoanCreated",
      "type": "event"
    },
    {
      "anonymous": false,
      "inputs": [
        {
          "indexed": true,
          "internalType": "uint256",
          "name": "loanId",
          "type": "uint256"
        },
        {
          "indexed": false,
          "internalType": "uint256",
          "name": "collateralValue",
          "type": "uint256"
        }
      ],
      "name": "LoanLiquidated",
      "type": "event"
    },
    {
      "anonymous": false,
      "inputs": [
        {
          "indexed": true,
          "internalType": "uint256",
          "name": "loanId",
          "type": "uint256"
        }
      ],
      "name": "LoanRepaid",
      "type": "event"
    },
    {
      "anonymous": false,
      "inputs": [
        {
          "indexed": true,
          "internalType": "uint256",
          "name": "loanId",
          "type": "uint256"
        },
        {
          "indexed": false,
          "internalType": "uint256",
          "name": "newDuration",
          "type": "uint256"
        }
      ],
      "name": "LoanRestructured",
      "type": "event"
    },
    {
      "anonymous": false,
      "inputs": [
        {
          "indexed": false,
          "internalType": "address",
          "name": "account",
          "type": "address"
        }
      ],
      "name": "Paused",
      "type": "event"
    },
    {
      "anonymous": false,
      "inputs": [
        {
          "indexed": true,
          "internalType": "address",
          "name": "recipient",
          "type": "address"
        },
        {
          "indexed": false,
          "internalType": "uint256",
          "name": "amount",
          "type": "uint256"
        }
      ],
      "name": "TransferFailed",
      "type": "event"
    },
    {
      "anonymous": false,
      "inputs": [
        {
          "indexed": false,
          "internalType": "address",
          "name": "account",
          "type": "address"
        }
      ],
      "name": "Unpaused",
      "type": "event"
    },
    {
      "inputs": [],
      "name": "ARB_SEPOLIA_CHAIN_ID",
      "outputs": [
        {
          "internalType": "uint256",
          "name": "",
          "type": "uint256"
        }
      ],
      "stateMutability": "view",
      "type": "function"
    },
    {
      "inputs": [
        {
          "internalType": "uint256",
          "name": "",
          "type": "uint256"
        }
      ],
      "name": "allloans",
      "outputs": [
        {
          "internalType": "uint256",
          "name": "loanId",
          "type": "uint256"
        },
        {
          "components": [
            {
              "internalType": "address",
              "name": "borrower_address",
              "type": "address"
            },
            {
              "internalType": "uint256",
              "name": "points",
              "type": "uint256"
            }
          ],
          "internalType": "struct ArbitrumLendingContract.Borrower",
          "name": "borrower",
          "type": "tuple"
        },
        {
          "internalType": "enum ArbitrumLendingContract.LoanStatus",
          "name": "status",
          "type": "uint8"
        },
        {
          "internalType": "uint256",
          "name": "amount",
          "type": "uint256"
        },
        {
          "internalType": "uint256",
          "name": "interest",
          "type": "uint256"
        },
        {
          "internalType": "uint256",
          "name": "duration",
          "type": "uint256"
        },
        {
          "internalType": "uint256",
          "name": "startTime",
          "type": "uint256"
        },
        {
          "internalType": "bool",
          "name": "repaid",
          "type": "bool"
        },
        {
          "internalType": "uint256",
          "name": "collateralAmount",
          "type": "uint256"
        },
        {
          "internalType": "uint256",
          "name": "totalAmount",
          "type": "uint256"
        },
        {
          "components": [
            {
              "internalType": "address",
              "name": "lender_address",
              "type": "address"
            },
            {
              "internalType": "uint256",
              "name": "points",
              "type": "uint256"
            }
          ],
          "internalType": "struct ArbitrumLendingContract.Lender",
          "name": "lender",
          "type": "tuple"
        }
      ],
      "stateMutability": "view",
      "type": "function"
    },
    {
      "inputs": [
        {
          "internalType": "uint256",
          "name": "amount",
          "type": "uint256"
        }
      ],
      "name": "calculateCollateral",
      "outputs": [
        {
          "internalType": "uint256",
          "name": "",
          "type": "uint256"
        }
      ],
      "stateMutability": "view",
      "type": "function"
    },
    {
      "inputs": [
        {
          "internalType": "uint256",
          "name": "amount",
          "type": "uint256"
        },
        {
          "internalType": "uint256",
          "name": "interest",
          "type": "uint256"
        },
        {
          "internalType": "uint256",
          "name": "duration",
          "type": "uint256"
        }
      ],
      "name": "createLoan",
      "outputs": [],
      "stateMutability": "nonpayable",
      "type": "function"
    },
    {
      "inputs": [],
      "name": "getAllLoans",
      "outputs": [
        {
          "components": [
            {
              "internalType": "uint256",
              "name": "loanId",
              "type": "uint256"
            },
            {
              "components": [
                {
                  "internalType": "address",
                  "name": "borrower_address",
                  "type": "address"
                },
                {
                  "internalType": "uint256",
                  "name": "points",
                  "type": "uint256"
                }
              ],
              "internalType": "struct ArbitrumLendingContract.Borrower",
              "name": "borrower",
              "type": "tuple"
            },
            {
              "internalType": "enum ArbitrumLendingContract.LoanStatus",
              "name": "status",
              "type": "uint8"
            },
            {
              "internalType": "uint256",
              "name": "amount",
              "type": "uint256"
            },
            {
              "internalType": "uint256",
              "name": "interest",
              "type": "uint256"
            },
            {
              "internalType": "uint256",
              "name": "duration",
              "type": "uint256"
            },
            {
              "internalType": "uint256",
              "name": "startTime",
              "type": "uint256"
            },
            {
              "internalType": "bool",
              "name": "repaid",
              "type": "bool"
            },
            {
              "internalType": "uint256",
              "name": "collateralAmount",
              "type": "uint256"
            },
            {
              "internalType": "uint256",
              "name": "totalAmount",
              "type": "uint256"
            },
            {
              "components": [
                {
                  "internalType": "address",
                  "name": "lender_address",
                  "type": "address"
                },
                {
                  "internalType": "uint256",
                  "name": "points",
                  "type": "uint256"
                }
              ],
              "internalType": "struct ArbitrumLendingContract.Lender",
              "name": "lender",
              "type": "tuple"
            }
          ],
          "internalType": "struct ArbitrumLendingContract.Loan[]",
          "name": "",
          "type": "tuple[]"
        }
      ],
      "stateMutability": "view",
      "type": "function"
    },
    {
      "inputs": [],
      "name": "getLatestETHPrice",
      "outputs": [
        {
          "internalType": "int256",
          "name": "",
          "type": "int256"
        }
      ],
      "stateMutability": "view",
      "type": "function"
    },
    {
      "inputs": [],
      "name": "getLatestUSDCPrice",
      "outputs": [
        {
          "internalType": "int256",
          "name": "",
          "type": "int256"
        }
      ],
      "stateMutability": "view",
      "type": "function"
    },
    {
      "inputs": [
        {
          "internalType": "uint256",
          "name": "loanId",
          "type": "uint256"
        }
      ],
      "name": "getLoanDetails",
      "outputs": [
        {
          "components": [
            {
              "internalType": "uint256",
              "name": "loanId",
              "type": "uint256"
            },
            {
              "components": [
                {
                  "internalType": "address",
                  "name": "borrower_address",
                  "type": "address"
                },
                {
                  "internalType": "uint256",
                  "name": "points",
                  "type": "uint256"
                }
              ],
              "internalType": "struct ArbitrumLendingContract.Borrower",
              "name": "borrower",
              "type": "tuple"
            },
            {
              "internalType": "enum ArbitrumLendingContract.LoanStatus",
              "name": "status",
              "type": "uint8"
            },
            {
              "internalType": "uint256",
              "name": "amount",
              "type": "uint256"
            },
            {
              "internalType": "uint256",
              "name": "interest",
              "type": "uint256"
            },
            {
              "internalType": "uint256",
              "name": "duration",
              "type": "uint256"
            },
            {
              "internalType": "uint256",
              "name": "startTime",
              "type": "uint256"
            },
            {
              "internalType": "bool",
              "name": "repaid",
              "type": "bool"
            },
            {
              "internalType": "uint256",
              "name": "collateralAmount",
              "type": "uint256"
            },
            {
              "internalType": "uint256",
              "name": "totalAmount",
              "type": "uint256"
            },
            {
              "components": [
                {
                  "internalType": "address",
                  "name": "lender_address",
                  "type": "address"
                },
                {
                  "internalType": "uint256",
                  "name": "points",
                  "type": "uint256"
                }
              ],
              "internalType": "struct ArbitrumLendingContract.Lender",
              "name": "lender",
              "type": "tuple"
            }
          ],
          "internalType": "struct ArbitrumLendingContract.Loan",
          "name": "",
          "type": "tuple"
        }
      ],
      "stateMutability": "view",
      "type": "function"
    },
    {
      "inputs": [
        {
          "internalType": "uint256",
          "name": "_loanId",
          "type": "uint256"
        },
        {
          "internalType": "uint256",
          "name": "_amount",
          "type": "uint256"
        },
        {
          "internalType": "address payable",
          "name": "_recipient",
          "type": "address"
        }
      ],
      "name": "lend",
      "outputs": [],
      "stateMutability": "payable",
      "type": "function"
    },
    {
      "inputs": [
        {
          "internalType": "uint256",
          "name": "loanId",
          "type": "uint256"
        }
      ],
      "name": "liquidateLoan",
      "outputs": [],
      "stateMutability": "nonpayable",
      "type": "function"
    },
    {
      "inputs": [],
      "name": "loanCount",
      "outputs": [
        {
          "internalType": "uint256",
          "name": "",
          "type": "uint256"
        }
      ],
      "stateMutability": "view",
      "type": "function"
    },
    {
      "inputs": [
        {
          "internalType": "uint256",
          "name": "",
          "type": "uint256"
        }
      ],
      "name": "loans",
      "outputs": [
        {
          "internalType": "uint256",
          "name": "loanId",
          "type": "uint256"
        },
        {
          "components": [
            {
              "internalType": "address",
              "name": "borrower_address",
              "type": "address"
            },
            {
              "internalType": "uint256",
              "name": "points",
              "type": "uint256"
            }
          ],
          "internalType": "struct ArbitrumLendingContract.Borrower",
          "name": "borrower",
          "type": "tuple"
        },
        {
          "internalType": "enum ArbitrumLendingContract.LoanStatus",
          "name": "status",
          "type": "uint8"
        },
        {
          "internalType": "uint256",
          "name": "amount",
          "type": "uint256"
        },
        {
          "internalType": "uint256",
          "name": "interest",
          "type": "uint256"
        },
        {
          "internalType": "uint256",
          "name": "duration",
          "type": "uint256"
        },
        {
          "internalType": "uint256",
          "name": "startTime",
          "type": "uint256"
        },
        {
          "internalType": "bool",
          "name": "repaid",
          "type": "bool"
        },
        {
          "internalType": "uint256",
          "name": "collateralAmount",
          "type": "uint256"
        },
        {
          "internalType": "uint256",
          "name": "totalAmount",
          "type": "uint256"
        },
        {
          "components": [
            {
              "internalType": "address",
              "name": "lender_address",
              "type": "address"
            },
            {
              "internalType": "uint256",
              "name": "points",
              "type": "uint256"
            }
          ],
          "internalType": "struct ArbitrumLendingContract.Lender",
          "name": "lender",
          "type": "tuple"
        }
      ],
      "stateMutability": "view",
      "type": "function"
    },
    {
      "inputs": [],
      "name": "paused",
      "outputs": [
        {
          "internalType": "bool",
          "name": "",
          "type": "bool"
        }
      ],
      "stateMutability": "view",
      "type": "function"
    },
    {
      "inputs": [
        {
          "internalType": "uint256",
          "name": "_loanId",
          "type": "uint256"
        },
        {
          "internalType": "uint256",
          "name": "_amount",
          "type": "uint256"
        },
        {
          "internalType": "address payable",
          "name": "_recipient",
          "type": "address"
        }
      ],
      "name": "repay",
      "outputs": [],
      "stateMutability": "nonpayable",
      "type": "function"
    },
    {
      "inputs": [
        {
          "internalType": "uint256",
          "name": "loanId",
          "type": "uint256"
        },
        {
          "internalType": "uint256",
          "name": "newDuration",
          "type": "uint256"
        }
      ],
      "name": "restructureLoan",
      "outputs": [],
      "stateMutability": "nonpayable",
      "type": "function"
    }
  ],
  "bytecode": "0x608060405234801561001057600080fd5b506000805460ff1916905560018055600580546001600160a01b031990811673d30e2101a97dcbaebcbc04f14c3f624e67a351651790915560068054909116730153002d20b96532c639313c2d54c3da09109309179055611c0c806100766000396000f3fe6080604052600436106100e85760003560e01c8063aa92d3211161008a578063e1ec3c6811610059578063e1ec3c681461026b578063ef2d17101461031c578063f29b61641461033c578063f807e5151461034f57600080fd5b8063aa92d321146101de578063b1e8f8ef14610215578063ccdd9f5d14610235578063ce63094d1461025557600080fd5b8063777e0d86116100c6578063777e0d86146101705780637f281a6414610185578063904b513b1461019a578063a5bfd16a146101bc57600080fd5b806356059339146100ed5780635c975abb1461012057806366877b8d14610143575b600080fd5b3480156100f957600080fd5b5061010d61010836600461181a565b610366565b6040519081526020015b60405180910390f35b34801561012c57600080fd5b5060005460ff166040519015158152602001610117565b34801561014f57600080fd5b5061016361015e36600461181a565b6103c4565b604051610117919061191e565b34801561017c57600080fd5b5061010d6104c4565b34801561019157600080fd5b5061010d610549565b3480156101a657600080fd5b506101ba6101b5366004611933565b61059f565b005b3480156101c857600080fd5b506101d1610b0e565b604051610117919061195f565b3480156101ea57600080fd5b506101fe6101f936600461181a565b610c4d565b6040516101179b9a999897969594939291906119ae565b34801561022157600080fd5b506101ba610230366004611a43565b610cf3565b34801561024157600080fd5b506101ba61025036600461181a565b610fc8565b34801561026157600080fd5b5061010d60045481565b34801561027757600080fd5b506101fe61028636600461181a565b60036020818152600092835260409283902080548451808601865260018301546001600160a01b03908116825260028401548286015294830154600484015460058501546006860154600787015460088801546009890154600a8a01548d51808f01909e52600b8b0154909c168d52600c90990154998c01999099529599949860ff94851698939792969195919490931692908b565b34801561032857600080fd5b506101ba610337366004611a88565b6112eb565b6101ba61034a366004611a43565b6113d1565b34801561035b57600080fd5b5061010d62066eee81565b600080610371610549565b9050600061037d6104c4565b90506000670de0b6b3a76400006103948387611ac0565b61039e9190611ad7565b90506000836103b083620f4240611ac0565b6103ba9190611ad7565b9695505050505050565b6103cc611777565b600082815260036020818152604092839020835161016081018552815481528451808601865260018301546001600160a01b031681526002830154818501529281019290925280830154919390929084019160ff169081111561043157610431611833565b600381111561044257610442611833565b8152600482015460208083019190915260058301546040808401919091526006840154606084015260078401546080840152600884015460ff16151560a0840152600984015460c0840152600a84015460e08401528051808201909152600b8401546001600160a01b03168152600c9093015490830152610100015292915050565b600080600560009054906101000a90046001600160a01b03166001600160a01b031663feaf968c6040518163ffffffff1660e01b815260040160a060405180830381865afa15801561051a573d6000803e3d6000fd5b505050506040513d601f19601f8201168201806040525081019061053e9190611b18565b509195945050505050565b600080600660009054906101000a90046001600160a01b03166001600160a01b031663feaf968c6040518163ffffffff1660e01b815260040160a060405180830381865afa15801561051a573d6000803e3d6000fd5b6105a76116b9565b6105af6116f8565b4662066eee1461062c5760405162461bcd60e51b815260206004820152603560248201527f596f7520617265206e6f7420636f6e6e656374656420746f207468652041726260448201527f697472756d205365706f6c6961206e6574776f726b000000000000000000000060648201526084015b60405180910390fd5b6000610636610549565b905060006106426104c4565b90506000670de0b6b3a76400006106598388611ac0565b6106639190611ad7565b905060008361067583620f4240611ac0565b61067f9190611ad7565b6040517f23b872dd000000000000000000000000000000000000000000000000000000008152336004820152306024820152604481018290529091507375faf114eafb1bdbe2f0316df893fd58ce46aa4d906323b872dd906064016020604051808303816000875af11580156106f9573d6000803e3d6000fd5b505050506040513d601f19601f8201168201806040525081019061071d9190611b68565b6107695760405162461bcd60e51b815260206004820152601460248201527f55534443207472616e73666572206661696c65640000000000000000000000006044820152606401610623565b6004805490600061077983611b91565b9190505550600061078b88888861173b565b905060405180610160016040528060045481526020016040518060400160405280336001600160a01b0316815260200160008152508152602001600060038111156107d8576107d8611833565b815260208082018b905260408083018b9052606083018a905260006080840181905260a0840181905260c0840187905260e084018690528151808301835281815280840182905261010090940193909352600454835260038083529281902084518155848301518051600180840180546001600160a01b0319166001600160a01b0390931692909217909155930151600282015590840151818401805492949193909260ff191691849081111561089157610891611833565b021790555060608201516004828101919091556080830151600583015560a0830151600683015560c0830151600783015560e083015160088301805460ff19169115159190911790556101008301516009830155610120830151600a830155610140909201518051600b830180546001600160a01b0319166001600160a01b03909216919091179055602090810151600c90920191909155604080516101608101825292548352805180820182523381526000818401819052928401526002929190820190815260208082018c905260408083018c9052606083018b905260006080840181905260a0840181905260c0840188905260e084018790528151808301835281815280840182905261010090940193909352845460018082018755958452928290208451600d9094020192835583820151805184870180546001600160a01b0319166001600160a01b0390921691909117905590910151600283015582015160038083018054949593949293909260ff1916918490811115610a1957610a19611833565b0217905550606082810151600483810191909155608080850151600585015560a0850151600685015560c0850151600785015560e085015160088501805460ff19169115159190911790556101008501516009850155610120850151600a850155610140909401518051600b850180546001600160a01b0319166001600160a01b03909216919091179055602090810151600c9094019390935554604080518d81529384018c905283018a9052908201859052339290917f2b6e7be0390a80ec9c24c00d1dbf95d0cc27e42970c49fdd9d2d9f8b7a876466910160405180910390a35050505050610b0960018055565b505050565b60606002805480602002602001604051908101604052809291908181526020016000905b82821015610c445760008481526020908190206040805161016081018252600d8602909201805483528151808301835260018201546001600160a01b03168152600282015481860152938301939093526003808401549293929184019160ff1690811115610ba257610ba2611833565b6003811115610bb357610bb3611833565b8152600482015460208083019190915260058301546040808401919091526006840154606084015260078401546080840152600884015460ff16151560a0840152600984015460c0840152600a84015460e08401528051808201909152600b8401546001600160a01b03168152600c9093015483820152610100909101919091529082526001929092019101610b32565b50505050905090565b60028181548110610c5d57600080fd5b6000918252602091829020600d90910201805460408051808201825260018401546001600160a01b0390811682526002850154828701526003850154600486015460058701546006880154600789015460088a015460098b0154600a8c01548a51808c01909b52600b8d01549098168a52600c909b01549b89019b909b52979a50949860ff93841698929791969194931692908b565b610cfb6116b9565b610d036116f8565b60008381526003602052604090204662066eee14610d895760405162461bcd60e51b815260206004820152603560248201527f596f7520617265206e6f7420636f6e6e656374656420746f207468652041726260448201527f697472756d205365706f6c6961206e6574776f726b00000000000000000000006064820152608401610623565b80548414610dcb5760405162461bcd60e51b815260206004820152600f60248201526e125b9d985b1a59081b1bd85b881251608a1b6044820152606401610623565b600881015460ff1615610e205760405162461bcd60e51b815260206004820152601c60248201527f4c6f616e2068617320616c7265616479206265656e20726570616964000000006044820152606401610623565b8281600a015414610e825760405162461bcd60e51b815260206004820152602660248201527f4c656e6420616d6f756e74206d757374206d6174636820746865206c6f616e20604482015265185b5bdd5b9d60d21b6064820152608401610623565b3331831115610ed35760405162461bcd60e51b815260206004820152601460248201527f496e73756666696369656e742062616c616e63650000000000000000000000006044820152606401610623565b6000826001600160a01b03168460405160006040518083038185875af1925050503d8060008114610f20576040519150601f19603f3d011682016040523d82523d6000602084013e610f25565b606091505b5050905080610f9c5760405162461bcd60e51b815260206004820152602360248201527f4c6f616e207265706179696e67204574686572207472616e736665722066616960448201527f6c656400000000000000000000000000000000000000000000000000000000006064820152608401610623565b5060088101805460ff199081166001908117909255600390920180549092166002179091558055505050565b6000818152600360205260409020805482146110185760405162461bcd60e51b815260206004820152600f60248201526e125b9d985b1a59081b1bd85b881251608a1b6044820152606401610623565b8060060154816007015461102c9190611baa565b42101561107b5760405162461bcd60e51b815260206004820152601360248201527f4c6f616e206973206e6f742064756520796574000000000000000000000000006044820152606401610623565b600881015460ff16156110d05760405162461bcd60e51b815260206004820152601c60248201527f4c6f616e2068617320616c7265616479206265656e20726570616964000000006044820152606401610623565b60098101546040517f70a082310000000000000000000000000000000000000000000000000000000081523060048201527375faf114eafb1bdbe2f0316df893fd58ce46aa4d9190819083906370a0823190602401602060405180830381865afa158015611142573d6000803e3d6000fd5b505050506040513d601f19601f820116820180604052508101906111669190611bbd565b10156111b45760405162461bcd60e51b815260206004820152601d60248201527f496e73756666696369656e7420636f6e74726163742062616c616e63650000006044820152606401610623565b6040517fa9059cbb000000000000000000000000000000000000000000000000000000008152336004820152602481018290526000906001600160a01b0384169063a9059cbb906044016020604051808303816000875af115801561121d573d6000803e3d6000fd5b505050506040513d601f19601f820116820180604052508101906112419190611b68565b9050806112905760405162461bcd60e51b815260206004820152601560248201527f546f6b656e207472616e73666572206661696c656400000000000000000000006044820152606401610623565b60088401805460ff199081166001179091556003808601805490921617905560405182815285907f83aaaf962df73d321a429ab79cb614c268b4d2118ae9f104034f9cbe4b4f85409060200160405180910390a25050505050565b60008281526003602052604090208054831461133b5760405162461bcd60e51b815260206004820152600f60248201526e125b9d985b1a59081b1bd85b881251608a1b6044820152606401610623565b600881015460ff16156113905760405162461bcd60e51b815260206004820152601c60248201527f4c6f616e2068617320616c7265616479206265656e20726570616964000000006044820152606401610623565b6006810182905560405182815283907f6a72f56ee10451596e12b9dde65af7f787c3fd135e59ce9a56e71b28b5e6a8ba9060200160405180910390a2505050565b6113d96116b9565b6113e16116f8565b60008381526003602052604090204662066eee146114675760405162461bcd60e51b815260206004820152603560248201527f596f7520617265206e6f7420636f6e6e656374656420746f207468652041726260448201527f697472756d205365706f6c6961206e6574776f726b00000000000000000000006064820152608401610623565b805484146114a95760405162461bcd60e51b815260206004820152600f60248201526e125b9d985b1a59081b1bd85b881251608a1b6044820152606401610623565b600881015460ff16156114fe5760405162461bcd60e51b815260206004820152601c60248201527f4c6f616e2068617320616c7265616479206265656e20726570616964000000006044820152606401610623565b828160040154146115605760405162461bcd60e51b815260206004820152602660248201527f4c656e6420616d6f756e74206d757374206d6174636820746865206c6f616e20604482015265185b5bdd5b9d60d21b6064820152608401610623565b33318311156115b15760405162461bcd60e51b815260206004820152601460248201527f496e73756666696369656e742062616c616e63650000000000000000000000006044820152606401610623565b6000826001600160a01b03168460405160006040518083038185875af1925050503d80600081146115fe576040519150601f19603f3d011682016040523d82523d6000602084013e611603565b606091505b50509050806116545760405162461bcd60e51b815260206004820152601a60248201527f4c6f616e206c656e64696e6720457468657220206661696c65640000000000006044820152606401610623565b600b82018054336001600160a01b0319909116811790915560038301805460ff191660011790556040518581527f7c2294a8977ca95b78c4f70cac6e6c623ed54017921e8f84ccb4ed4f8c31268b9060200160405180910390a25050610b0960018055565b60005460ff16156116f6576040517fd93c066500000000000000000000000000000000000000000000000000000000815260040160405180910390fd5b565b600260015403611734576040517f3ee5aeb500000000000000000000000000000000000000000000000000000000815260040160405180910390fd5b6002600155565b60008063bbf81e008361174e8688611ac0565b6117589190611ac0565b6117629190611ad7565b905061176e8186611baa565b95945050505050565b604051806101600160405280600081526020016117b0604051806040016040528060006001600160a01b03168152602001600081525090565b815260200160008152602001600081526020016000815260200160008152602001600081526020016000151581526020016000815260200160008152602001611815604051806040016040528060006001600160a01b03168152602001600081525090565b905290565b60006020828403121561182c57600080fd5b5035919050565b634e487b7160e01b600052602160045260246000fd5b6004811061186757634e487b7160e01b600052602160045260246000fd5b9052565b8051825260208082015180516001600160a01b0316828501529081015160408401525060408101516118a06060840182611849565b5060608101516080830152608081015160a083015260a081015160c083015260c081015160e083015260e08101516101006118de8185018315159052565b820151610120848101919091528201516101408085019190915282015180516001600160a01b031661016085015260208101516101808501529050505050565b6101a0810161192d828461186b565b92915050565b60008060006060848603121561194857600080fd5b505081359360208301359350604090920135919050565b6020808252825182820181905260009190848201906040850190845b818110156119a25761198e83855161186b565b928401926101a0929092019160010161197b565b50909695505050505050565b8b81526101a081016119d6602083018d80516001600160a01b03168252602090810151910152565b6119e3606083018c611849565b8960808301528860a08301528760c08301528660e08301528515156101008301528461012083015283610140830152611a3361016083018480516001600160a01b03168252602090810151910152565b9c9b505050505050505050505050565b600080600060608486031215611a5857600080fd5b833592506020840135915060408401356001600160a01b0381168114611a7d57600080fd5b809150509250925092565b60008060408385031215611a9b57600080fd5b50508035926020909101359150565b634e487b7160e01b600052601160045260246000fd5b808202811582820484141761192d5761192d611aaa565b600082611af457634e487b7160e01b600052601260045260246000fd5b500490565b805169ffffffffffffffffffff81168114611b1357600080fd5b919050565b600080600080600060a08688031215611b3057600080fd5b611b3986611af9565b9450602086015193506040860151925060608601519150611b5c60808701611af9565b90509295509295909350565b600060208284031215611b7a57600080fd5b81518015158114611b8a57600080fd5b9392505050565b600060018201611ba357611ba3611aaa565b5060010190565b8082018082111561192d5761192d611aaa565b600060208284031215611bcf57600080fd5b505191905056fea264697066735822122055f7bae58db8b77868f11ae696ed1963611aab8443db40becfb3aad96be88d6f64736f6c63430008180033",
  "linkReferences": {},
  "deployedLinkReferences": {}
}